:020000040000FA
:030000000200D724
:10008300020E5700000080FBE4900200781579020D
:100093008002F0A3D8FCD9FA7A147B039001077885
:1000A3009079018015E493A3AD82AE838A828B831A
:1000B300F0A3AA82AB838D828E83D8E9D9E77582B8
:1000C300CA75832574001200E975828675830074EE
:1000D300001200E975D0007581BF7510007511021B
:1000E300759F0002008BC09FF59FE473D09F22D0C1
:1000F30083D082C09FE493C0E0740193C0E0740294
:1001030093F59F22FF0000000000000000000000A4
:100113000000803F0448656C6C6F206363323533A5
:10012300300D0A73656E64206E6F646520737461AD
:1001330072742075702E2E2E0D0A000D0A00B40065
:10014300AB003031323334353637383941424344EA
:10015300454600286E756C6C20706F696E7465720D
:1001630029003031323334353637383961626364CC
:100173006566003F3F3F000000807F00000000F9FC
:10018300021550B743BA510000204100E7DB2E00AF
:1001930000A0401200F2FA1E001200F2B21F001279
:1001A30000F21320001200F24021001200F2D321CA
:1001B300001200F26F22001200F2EA27001200F28E
:1001C3002028001200F28322001200F29A22001269
:1001D30000F2C922001200F24623001200F2332972
:1001E300001200F24B28001200F25828001200F20D
:1001F3007328001200F28E28001200F2292900123F
:1002030000F22E29001200F26E27001200F2962748
:10021300001200F2C327001200F22726001200F298
:100223005326001200F26926001200F28126001202
:1002330000F29926001200F2C526001200F2EA2607
:10024300001200F2FB26001200F20427001200F253
:100253000D27001200F22227001200F237270012A6
:1002630000F25827001200F26B27001200F27C24E0
:10027300001200F2A524001200F2AC24001200F2D6
:10028300B324001200F2BA24001200F2C0240012B8
:1002930000F20325001200F2970E001200F2A713DA
:1002A300001200F2FD28001200F2A828001200F24A
:1002B300B92800C008C3E096F50808A3E0964208F1
:1002C30008A3E096420808A3E0964208A2D265D0AC
:1002D30033E5087001D3D00822080808E630E71197
:1002E300120B161202F4080808C64480C618181820
:1002F30022181818E9799EC608CAC608CBC608CCC6
:10030300C6C370207996CACBCC7019798ECBCC70CA
:10031300137986CC700EF9802ACA33CACB33CBCC7F
:1003230033CC331930E7F2CCCBCA3350147004EA20
:1003330030E00DE4CA3ACACB3BCBCC3CCC500209EB
:10034300C3E913C6CC182313C6CB18C6CA18C6F9FB
:100353002212039420F01430E72B74FFFCFBFA7491
:100363007F8022E4FCFBFA7480801AB48008BC000E
:10037300F2BB00EF800F50EBF9E4C39AFAE49BFB66
:10038300E49CFCE499C6CC18C6CB18C6CA18C6F9B7
:1003930022E4C9C608CAC608CBC6D3330308CCC6F1
:1003A3003392F0C3947F402E94184019C9B90704BF
:1003B300CACBCC225025C309CA33CACB33CBCC33E7
:1003C300CC33D9F422F4600DC9CCC313CB13CBCAFD
:1003D30013CAD9F6CC22E4FCFBFA2214FCFBFA2262
:1003E300E62618461846184622E7271947194719DB
:1003F3004722181818E60846087009E6260870050B
:10040300E633F4220822191919E70947097009E7A5
:1004130027097005E733F4220922E6084608C313C7
:100423004608336002E633F422E7094709C313475A
:1004330009336002E733F42212041D602512042CF1
:1004430060201203E370030203EC080808E76670F8
:10045300101819E766700A1819E76670041819E787
:100463006622F42212041D601C12042C601712036E
:10047300E370071203EC7001D322C0D01203EC70B7
:1004830006D0D0B322C32233D0D0501430E0F6C309
:10049300E7960809E7960809E7960809E796B3225D
:1004A30020E0D5E6970809E6970809E6970809E6E4
:1004B30097B32212041D601B12042C60161203E36F
:1004C30070071203EC600CB322C0D01203EC70056A
:1004D300D0D022C32233D0D0501330E0EBC3E79601
:1004E3000809E7960809E7960809E7962220E0E459
:1004F300E6970809E6970809E6970809E6972200B0
:1005030012041D604F12042C6012E7548066F61229
:1005130003F570111203EC703B090909F4F618F6A0
:1005230018F618F62212040970151203E3080808D6
:1005330060EAE6447FF618768018E4F618F622128D
:1005430003E360161203EC7012E4F608F608F608EB
:10055300E65480F609090918181822EAC0E0EBC02E
:10056300E0ECC0E0EDC0E0E687F0A4FBACF008E609
:1005730087F0A42CFCE435F0FA1809E687F0A42CE4
:100583004B60027401CA35F0FCE433FB09E687F0E3
:10059300D2F7A42CCB35F0FC1908E687F0A42BCCBA
:1005A30035F0FBE433FD0819E687F0D2E7A42C4AC3
:1005B300CB35F0CD3400FC09E687F0D2E7A42DCC8F
:1005C30035F0FDE433FA0918E687F0D2F7A42CCD11
:1005D30035F0CA3400FC08E687F0D2E7D2F7A42A44
:1005E300CC35F07A7E20E70B0ACB33CBCD33CDCCA1
:1005F30033CC33CB3350147004ED30E00ED2F1E43E
:10060300CD3DCDCC3CCC3B5005DA05C2F1EB547F5C
:10061300C63308E63392F0FBE73309E733C39A5056
:100623002D2B70190C0D4C4D70151806E608C333AD
:10063300700D20F10AA2F013F6E418800B4024E4B5
:10064300F630F002768018F618F618F68024D33BBD
:1006530014501074FFA2F013F6187680E418F618FD
:10066300F6800FA2F013F618E63303F618ECF6182B
:10067300EDF6D0E0FDD0E0FCD0E0FBD0E0FA2212B2
:10068300042C604612041D603DE9687008F618F6F4
:1006930018F618F622748067F71206B6090909746A
:1006A3008067F72212041D601D12042C70051919AE
:1006B30019801A1203F5701F120409C37003E66749
:1006C3003319191940071818182208080874FFF677
:1006D30018F618F618F62212040960171203EC70C4
:1006E3002192F01203E37019501720F01408080840
:1006F300090909E7F61819E7F61819E7F61819E7CB
:10070300F6221203E360E6E869701F0808E6248016
:10071300F608E436F618547FB47F0CE6548060077D
:10072300F6E418F618F622181822E9C6CC08C6CD46
:1007330008C6CE08C6CFC0E0E8C0E0EAC0E0EBC020
:10074300E009E9F809E7FA09E7FBE6F918E6F8C36F
:10075300EC98ED99EE9AEBC2E7F5F0EFC2E795F06E
:10076300500E600CEBCFFBEACEFAE9CDF9E8CCF8FA
:10077300EAA2E7D2E7FAEB33FB13F5F0EEA2E7D2F6
:10078300E7FEEF33FFC5F013A2E730E601B313C56D
:10079300F0C3C0E0C0F07F00C39BFB605E941860B1
:1007A3000F401D14601AD0E023F9D0E0F802088846
:1007B3008AF0E9486003D2F0E4AFF0FAF9F8803B3D
:1007C300EB30E40D89F0EA6003D2F0E4AFF0F9CA4C
:1007D300F8EB30E30D88F0EF6002D2F0AFF0E4CA3B
:1007E300C9F8EB54076014FBC3EA13FAE913F9E8F9
:1007F30013F8EF135002D2E0FFDBEDD0E0C0E0309E
:10080300E739C3E49FFFF5F0EC98FC42F0ED99FD66
:1008130042F0EE9AFE42F0D0E0F9D0E0F8E5F06065
:100823007AE923F9EE20E742D8028067C3EF33FF6A
:10083300EC33FCED33FDEE33FE80EAEC28FCED39BE
:10084300FDEE3AFED0E023F9D0E0F84002801BC36E
:10085300EE13FEED13FDEC13FCEF135002D2E0FF99
:1008630008B800067F7F74FF802EEF3350178CF09B
:1008730020F00260100CBC000C0DBD00080EBE0081
:100883000408E860DFE933E813FFEE2313FE4F4D5E
:100893004C8008E95480FFE4FEFDFCEE33EF33F4B3
:1008A3007004FCFD7E80D0E0FBD0E0FAD0E0F8D00D
:1008B300E0CFC618CEC618CDC618CCC6F92212048E
:1008C3001D70041818182212042C700D74FFF618EA
:1008D30019F61819F61819F622E7548066F612036A
:1008E300E3700F1203EC70F014F608F608F608F63E
:1008F30080D11203EC700CF608F608768008E64403
:100903007F80EC12040C700C1203F860BFE6548075
:10091300F6E480BB1203F8700519191980A5E8697C
:10092300700C763F18768018F618F6E8F922E6CDB3
:10093300C0E018ECC0E0E633CD33CDD313F6E719AE
:10094300FCE7191933CC33C3947F400ECD9D50245B
:1009530008E65480F6E418F6800FF4043D145014AE
:1009630008E6447FF6187680E418F618F6D0E0FC23
:10097300D0E0FD22CCD313CCFD18E4C6CBC0E018E5
:10098300E4C6CAC0E00808ED08C633E613F618E467
:1009930033C675F003C3CA97CA09CB97CB199C40DA
:1009A300047D08802EBD0003020A6A16B6FF050601
:1009B30006081618C3CA33CACB33CB33CA27CA09AE
:1009C300CB37CB193CC37D08803E187D0820E75CFC
:1009D300C633C6CA33CACB33CB33DDF1D5F0EB30E4
:1009E300E77BCA97CA09CB974ACB199C406F4B70D8
:1009F30025E620E0218066187D08C3CA97CA09CB83
:100A030097CB199CD3C633C6CA33CACB33CB335027
:100A1300C9DDE7D5F0E1D3E4C636C608C636C60855
:100A2300C636C608C636C61818188031C3CA97CA50
:100A330009CB97CB199CB34097C633C6CA33CACBED
:100A430033CB33DD34D5F02EC6A2E0C640C8CA2767
:100A5300CA09CB37194A70BECB3CB480B90808E643
:100A63003308E633601F181818D0E0FAD0E0FBD043
:100A7300E0FCD0E0FD22187D08CA27CA09CB37CB9A
:100A8300193CD3808013F618E4B67F11F618B6FF2D
:100A93000EF618C60470D20808768080CAF618F6D7
:100AA30018F680C5E4CFC0E0E4CEC0E0E4CDC0E0FA
:100AB300E4CCC0E075F020E626F608E633F608E657
:100AC30033F608E633F6181818EC33FCED33FDEE75
:100AD30033FEEF33FFC3EC9709ED9709EE9709EF68
:100AE30097191919400FFFEC97FC09ED97FD09EED3
:100AF30097FE191906D5F0BFECF709EDF709EEF7E4
:100B030009EFF7191919D0E0FCD0E0FDD0E0FED0D1
:100B1300E0FF22181818E4C396F608E496F608E4F2
:100B230096F608E496F622E0F608A3E0F608A3E0BA
:100B3300F608A3E0F622E6F008A3E6F008A3E6F041
:100B430008A3E6F022E0FAA3E0FBA3E0FCA3E0FDA8
:100B530022E0F8A3E0F9A3E0FAA3E0FB22E8F0A384
:100B6300E9F0A3EAF0A3EBF022CAC0E0E6F0A308A1
:100B7300DAFAD0E0FA22CAC0E0E0A3C582CCC5828B
:100B8300C583CDC583F0A3C582CCC582C583CDC53E
:100B930083DAE6D0E0CA22C3E498F8E499F9120BA9
:100BA300DB8026C3E49AFAE49BFBE920E7E9120B16
:100BB300DBE498F8E499F922C3E498F8E499F9128C
:100BC3000BDBE498F8E499F9C3E49AFAE49BFB227B
:100BD300EB20E7CFE920E7E0B90010BB0008E88A83
:100BE300F084F8AAF022E4FBC8FA22EB70227B100F
:100BF300C833C8C933C9335007C39AC3DBF280066D
:100C03009A50012ADBEAC833F4C8C933F4C9FA227B
:100C130075F008E4C833C8C933C933C99AC99B50AE
:100C230004C92AC93BD5F0ECFBC833F4C8E4C9FABC
:100C330022251010AF08F510400C15118008F5108F
:100C430040021511D2AF2200C0D0251010AF08F515
:100C530010500C05118008F51050020511D2AFD0C9
:100C6300D0222510F58210AF08F510400C15118025
:100C730008F51040021511D2AF851183222510F516
:100C830082E43511F583222510F8E43511F9222584
:100C930010FAE43511FB222510FCE43511FD22E4A2
:100CA300732510C582C0E0E51134FFC583C0E0E5BC
:100CB30010C3958224F810AF0885831185821080B4
:100CC30008858311858210D2AFCEF0A3E520F0A36F
:100CD3007808E608F0A3DEFAEFF0A3E58124FAF83A
:100CE300E608F0A3E608F0A3E608F0A30808E60880
:100CF300F0A3E608F0A315811581D0E0FED0E0F85B
:100D0300158115811581E8C0E0EEC0E022851183CD
:100D1300851082E0A3FEE0A3F5207808E0A3F6089F
:100D2300DFFAE0A3FFE0A3C0E0E0A3C0E0E0A3C0DC
:100D3300E0E0A3C0E0E0A3C0E010AF088582108527
:100D430083118008858210858311D2AFD083D0822E
:100D53000200EFC0D02510C582C0E0E51134FFC505
:100D630083C0E0E510C3958224F310AF0885831197
:100D73008582108008858311858210D2AFC8F0A3C5
:100D8300E9F0A3EAF0A3EBF0A37908E709F0A3D80D
:100D9300FAECF0A3EDF0A3EEF0A3EFF0A3D0E0F0B4
:100DA300A3D0E0F0A3D0E0F0A3E520F0A3E5F0F0BA
:100DB300A322851183851082E0C0E0A3E0F9A3E0BC
:100DC300FAA3E0FBA37808E0F608A3DFFAE0FCA3AC
:100DD300E0FDA3E0FEA3E0FFA3E0C0E0A3E0C0E0EA
:100DE300A3E0F5D0A3E0F520A3E0A3F5F010AF084E
:100DF3008583118582108008858311858210D2AF87
:100E0300D082D083D0E0F8D0E03274028002740143
:100E1300C0E0F404120C65D0E0120B6C2274028063
:100E230000CCC0E0EDC0E0E510C39CCCAD11500197
:100E33001D10AF068C108D1180068C108D11D2AF52
:100E4300120B79D0E0FDD0E0FC22EAF5C1A2E95013
:100E5300FCC2E922C0E074F2120D56A2AFE433FEE5
:100E6300C2AFE5E9A2E6502090030CE0F8A3E0F955
:100E7300E849600E90030CE0F8A3E0F58388821242
:100E83000CA2759B0053E9BFEEF8EEA2E092AF7F90
:100E930001020DB574F0120CA474FD120C3474022B
:100EA300120C80E9F08A088B098C0A8D0B741512D9
:100EB3000C80E0FEA3E0FF851082851183E4F0A39C
:100EC300F08E828F83A3AA82AB83900387780C1260
:100ED3000B2A7808790C12043B70118E828F83746D
:100EE3006912137F746EF0A374668018780879080A
:100EF30012043B60188E828F83746E12137F7461A9
:100F0300F0A3746EF0A30A0AAB8302131E900320AE
:100F1300780C120B2A7808790C1204675003020F1D
:100F2300C490038B780C120B2A7808790C12043BBB
:100F330060030210187417120C80E0700302105A39
:100F4300851082851183C082C0837413120C8012B2
:100F53001DBDD083D082121358502F851082851166
:100F630083C3E094FCA3E094FFA2D265D033401A7C
:100F73007402120C80E4121EBBF8A3E0F97413127E
:100F83000C80C3E098F0A3E099F07413120C801264
:100F930013757418120C80E0700302105774171243
:100FA3000C80E402105990038F780C120B2A7808F6
:100FB300790C1208C1851082851183E0240A121E60
:100FC300E1900393780C120B2A7808790C120467CA
:100FD30040D4900397780C120B2A7808790C1204EA
:100FE300674003020F38900397780C120B2A780896
:100FF300790C1208C1121ED880D890038F780C1276
:101003000B2A7808790C120502851082851183E07A
:1010130024F612137890039B780C120B2A78087924
:101023000C1204B640D4900320780C120B2A7808D3
:10103300790C1204B64003020F38900397780C1210
:101043000B2A7808790C1205028510828511831208
:10105300137580D27401F07402120C80E060047A7C
:1010630000807F121364507E8E828F837430F0EA87
:10107300FEEBFF7413120C80E0FCA3E0FDEC4D705B
:10108300087418120C80E0600B8E828F83742EF02C
:10109300A30EAF837A007B0080118E828F8374301E
:1010A3001213A07413120C80121375EA24FF1AEBA7
:1010B30034FFFB85108285118312134C500B74137C
:1010C300120C80121DC74970D1851082851183745B
:1010D300FFC39CF874FF9DF9121358500302123694
:1010E3007A017B00807A851082851183121DBDC32E
:1010F300E498FAE499FB806885080C85090D850A54
:101103000E850B0F780C120354AC0CE50D3395E0F0
:10111300F50EF50F780C1202DC7808790C120682B2
:10112300900397780C120B2A7808790C120502ECBD
:1011330012139AEAF8EBF9E824010AE439FBE849C7
:10114300701E7413120C80121DC749700874181294
:101153000C80E0600B8E828F83742EF0A30EAF831E
:101163007413120C8012134C508E90039F780C1240
:101173000B2A7808790C12046740030212367C01AB
:10118300EE24FFF8EF34FFF97415120C80E0F50834
:10119300A3E0F50988828983E0642E6010E02CF0D7
:1011A300643A70077430F07C0180027C00E8FAE94D
:1011B300FBEA24FF18EB34FFF9C3E5089AE5099B22
:1011C30040D2ECA2E0506C7402120C80E0603BEE63
:1011D300F8EF800DEC88828983F0E824FF18E93466
:1011E300FFF9C3E50898E50999501A121328E0FCA2
:1011F300742E6C70DFE824FEF582E934FFF5831268
:101203001335F980D5121ED8801E8E828F83A3AE2C
:1012130082AF83EEF8EF8006121328121335F9C359
:10122300E50898E5099940F07415120C80121DE247
:101233007431F07417120C80E07005801C1EAF83AC
:10124300EE24FFF582EF34FFF583E0F87430686035
:10125300EC742E6870031EAF837402120C80E0706E
:101263000302131A12139CA3A9831213648E828F91
:10127300835014742DF00EE9FF85108285118312BB
:101283001E0812138D8006742BF00EE9FF7C007D7F
:1012930000EE240AFE50010F0CEC70010D12133EF8
:1012A300120BD3EA12139A12133E120BD385108238
:1012B300851183E8F0A3E9121EBB4970DBC3EC94EC
:1012C30002ED121D6E40D1ECFAEDFBC3E49CF8E491
:1012D3009DF9EE28F582EF39F583E0C0E0C3E49A87
:1012E300F8E49BF9EE28F8EF39F9E82CF8E93DF931
:1012F300E824F5F582E934FFF583D0E0F0EC24FF30
:101303001CED34FFFDC3EC9401ED121D6E50BCEED9
:1013130024F6FEEF34FFFFEEFAEFFB7403120C4AE0
:101323007F08020D10E824FFFAE934FFFB8A828B61
:101333008322E088828983F018EB2285108285114D
:1013430083121DC17A0A7B0022C3E09AA3E09BA209
:10135300D265D03322C3E098A3E099A2D265D033FB
:1013630022851082851183C3A3E09400A2D265D0A5
:101373003322E024FFF0A3E034FFF022F0EAFEEB97
:10138300FF8E828F8322A3E03400F98510828511BA
:1013930083E8F0A3E9F02224308E828F83F0A3AE9A
:1013A30082AF832274F0120CA474AE120C34851035
:1013B30082851183121E817417120C80ECF0A3ED49
:1013C300F0740F120C80E4F0A3801B7462120C8083
:1013D300121DAD7417120C80121DE2120CA2740FB1
:1013E300120C80121D76F0121DF6F98510828511FC
:1013F30083E02401FAA3E03400FB85108285118386
:10140300121E817425696010E970C0740F120C807C
:10141300121DAD7452021320121DF6642570198536
:101423001082851183E02401081213897462120C5F
:1014330080121DAD7925809B740E120C80E4F0742C
:101443000D120C80E4F0740C120C80E4F07405129D
:101453000C80E4F07420120C8A7402120C801213B4
:1014630094741E120C807452F0A3740380197405D3
:10147300120C80E070077405120C80EAF08510826C
:10148300851183E8F0A3E9121EBB121DA4121E1FCF
:10149300FA24E060D924FD601724F860D924FE60A3
:1014A3000624FD600F8011740C120C80E00480CCC4
:1014B300740D80F5740E80F1121E1F642A705C7423
:1014C30064120C80121E25FAA3E0FB8A828B83E050
:1014D300FCA3E0FD740A120C80ECF0A3EDF0EA2407
:1014E30002FA50010B7464120C80121E79740A12F2
:1014F3000C8012136A501F740A120C80121DADC3A4
:10150300E49AFAE49BFB740A120C80121E81740C99
:10151300120C80E004F012138E8045740A120C80C2
:10152300E4F0A3802D740A120C80121DC775F00A13
:10153300A4F8AAF075F00AE9A42AF9E82508F8E462
:1015430039F9E824D0F8E934FFF9740A120C80124F
:101553001EE8121EC8F50874D02508C3940A40C5B6
:10156300740C120C80E06007740E120C80E4F0120D
:101573001DF6642E7077121E43E8F0A3E9121EC80D
:10158300642A70267464120C80121E2A888289834E
:10159300E0FEA3E0FFE82402F85001097464120C92
:1015A30080121E12121EE8F080477E007F00851015
:1015B30082851183121E0174D02508C3940A503109
:1015C300EE75F00AA4FEA8F075F00AEFA428FFEE6A
:1015D3002508F8E43FF9E824D0FEE934FFFF85103D
:1015E30082851183E02401F812138980C17EFF7F75
:1015F300FF7A00851082851183121D9F85108285D5
:101603001183E0FBA3E0F5838B82E024B46008241C
:10161300E4600524FC70040A12138E121DF6FB12FB
:101623001E43121E97120C80EBF07003021C14244D
:10163300BB7003021ADD24FE7003021ABF24EF708D
:101643000302181424F5700302170A147003021816
:10165300BB147003021ADD147003021ADB14700347
:10166300021ABF24FE70030218BB24FB602414700B
:10167300030217F814700302181424FD70030217F1
:101683004124FE700302181424FD7003021808029B
:101693001C207464120C80121E67120C80121E8FA1
:1016A300120C80121E2AE8FCE9FD7406120C80E07D
:1016B3002402F508A3E03400F509EAA2E0740F5010
:1016C3002F120C80121DBD3395E0FA8C828D83E8B6
:1016D300FCE9FDEAFEECF0A3EDF0A3EEF0A3F07459
:1016E30064120C80121DE2E508F0A3E5090213E978
:1016F300120C80121DBD8C828D831213947464129C
:101703000C80121E1280E07464120C80121DFC12F5
:101713001DFDC0E07420120C80D0E0F07464120C44
:1017230080121DE2121E37120C80121E1212139425
:101733007421120C80A882A98374110217EE7464B9
:10174300120C80121E67120C80121E8F120C801254
:101753001E67120C80E02402FAA3E03400FB7464D9
:10176300120C80121E797402120C80121394E84931
:10177300700C7402120C807463F0A37403F0121DD6
:101783006C50047E107F277408120C80E4F0A38051
:10179300087408120C80121D76F07402120C801269
:1017A3001DBD88828983A3AA82AB837402120C8035
:1017B300121E8188828983E0600A7408120C8012E9
:1017C3001DCC40CD7402120C80121D8D7411120CAD
:1017D300801213947408120C80121E08F9741112EB
:1017E3000C80E028F8A3E039F97402120C80E8F0C9
:1017F300A3E9021C37740D120C80E06008EE4F70F1
:10180300047E017F00741E120C807472F0A37403B3
:10181300F07464120C80121E67120C80121E971251
:101823000C80E0647070327406120C80121E5D121C
:101833000C80121E9F120C80121E37120C80121E77
:1018430012121394741A120C807410121EA9A3F0AE
:101853007405120C80E4021945EAA2E07406501BD9
:10186300120C80121DE2120B547413120C80120B13
:10187300607406120C80E024048012120C80121E85
:101883005D120C80121E9F120C80E02402121E3A7D
:10189300120C80121E12121E97120C80E0646F70DD
:1018A30009741A120C80740880A1E0647570957431
:1018B3001A120C80740A80937464120C80121E67CF
:1018C300120C80121394EAA2E074065015120C80D5
:1018D300121DE27808120B2A7406120C80E024040D
:1018E3008019120C80121E01A3E0F5093395E0F56F
:1018F3000AF50B7406120C80E02402121E3A120C35
:1019030080121EB0120C807808120B3990038B786A
:10191300081202B640217405120C80742DF0741362
:10192300120C807808120B2A7808120B1974131200
:101933000C807808120B39741A120C80740A121E68
:10194300A9A3F07451120C80A882A9837402120C0B
:10195300801213947411120C80121EB3120C801295
:101963000B54E8494A4B600A7419120C807401F055
:10197300800E7419120C80E4F0EE4F7003021A2FDC
:101983007402120C80121DDC120C80121EB3120C96
:1019930080780C120B2A741A120C807808120B2A06
:1019A300780C7908120AA7741E120C80E02508F837
:1019B300A3E035098882F583E0C0E07402120C804D
:1019C300121DE2D0E0F07413120C80780C120B2A73
:1019D300741A120C807808120B2A780C7908120AF0
:1019E300A77413120C80780C120B397413120C8029
:1019F300120B54E8494A4B7087121D6C502E740E1B
:101A0300120C80E060267405120C80E06004D2F0B2
:101A13008002C2F0740A120C80121D7F800E7402C1
:101A2300120C80121E87120C80121DEF7402120C0E
:101A330080121D8D7451120C80C082C083740212F7
:101A43000C80121DADD083D082E582C39AFAE58360
:101A53009BFBC3EA9EEB121DD540C3740D120C8091
:101A6300E07003021C387419120C80E0A2E04003FA
:101A7300021C387404120C80E064786005E064583A
:101A83007010E088828983F0E824FF18E934FFF9B5
:101A93008017E0646F6003021C387402120C80121A
:101AA3001E2564307003021C387402120C80121E4F
:101AB30087120C80121DE27430021C377408120C5A
:101AC300807401F0A3E4F07404120C80E024FEF0AF
:101AD300EE4F700F7E018012E4F07408120C80E464
:101AE300F0A3F0121D6C50047E067F007464120C88
:101AF30080121E67120C80121E8F120C80121DE2C0
:101B0300780C120B2A7406120C80E02404121E3A7D
:101B1300120C80121EB0120C80780C120B39900339
:101B23008B7808120B2A780C79081204B6502274A9
:101B330005120C80742DF07413120C807808120BAC
:101B43002AE50BB2E7F50B7413120C807808120B1D
:101B530039740A120C807420120C8A8909E028F85F
:101B6300A3E03509F97402120C80121394740D1258
:101B73000C80E0F5087808120E117409120C80E04D
:101B8300F5087808120E117404120C80120E208EC0
:101B9300088F097808120E0D740A120C80E0F9748C
:101BA30019120C80120B481202987406120C4A7414
:101BB30011120C80121E81740E120C80E060767478
:101BC30005120C80E06004D2F08002C2F0740A12A5
:101BD3000C80121D7F7411120C80C082C0837402AA
:101BE300120C80121DBDD083D082E0C398F8A3E00D
:101BF30099F9C3E89EE9121DD5503A7402120C807C
:101C0300121DDC120C80121E87120C80121DEF8035
:101C1300C4851082851183121D9612138D740212CE
:101C23000C807483F0A37403F07411120C80748617
:101C3300F0A37403F07411120C80C082C083740289
:101C4300120C80121DBDD083D082E0C398FEA3E0A6
:101C530099FF740A120C80121DCC500A7408120CDE
:101C630080E4F0A380307405120C80E06004D2F0AD
:101C73008002C2F0740A120C80E0C39EF8A3E09FB6
:101C8300F9A2F0E433FAE89AF8E99400F974081237
:101C93000C80E8F0A3E9F0740C120C80E0702B8048
:101CA300197462120C80121DB3120C80121DE21201
:101CB3000CA2740F120C80121EDE7408120C801218
:101CC3001E6D120C8012136A50D77405120C80E03B
:101CD30060507462120C80121DAD7405120C80E00A
:101CE300F97417120C80121DE2120CA2802C74627C
:101CF300120C80121DAD7402120C80121DFCF974BB
:101D030017120C80121DE2120CA27402120C801224
:101D13001D9F7402120C80121394740F120C801204
:101D23001EDEEE24FF1EEF34FFFFC3121D6E50BEF6
:101D3300740C120C80E070030213EA7408120C8016
:101D4300121E6D120C8012136A50030213EA74629E
:101D5300120C80121DB3120C80121DE2120CA2741D
:101D63000F120C80121EDE80D2C3EF9400A2D26544
:101D7300D03322E02401F0A3E0340022A2F0E433C4
:101D8300F8E098FEA3E09400FF22121D9122121D99
:101D930096F922E024FFF8A3E034FF22E0121DA409
:101DA300222401F8A3E03400F922E0FAA3E0FB22A5
:101DB300E0FAA3E0FB7920741722121DC122E0F898
:101DC300A3E0F922121DC1E822C3E09EA3E0121D85
:101DD300D5229FA2D265D03322121D917402221202
:101DE3001DE622E0F8A3E0F583888222121DE67443
:101DF30030F022851082851183E0121ECF22121D3E
:101E0300E6E0F50822121DC1C3E498F8E499221212
:101E13001E1622E0FAA3E0F5838A822285108285CA
:101E23001183121E16E022121E2E22E0121ECFF87C
:101E3300A3E0F922E02402F8A3E03400F974642259
:101E4300851082851183E0240108121E5122A3E02C
:101E53003400F985108285118322121E2EE8FAE9D7
:101E6300FB741322121E2E740622E024FFF0A3E05B
:101E730034FFF0740822E0FCA3E0F5838C82EAF0DF
:101E8300A3EBF022E8F0A3E9F0740222E8F0A3E95F
:101E9300F0740622E8F0A3E9F0740422EAF0A3EB5D
:101EA300121EA9740622F0A3E4F0A3F022121E1658
:101EB300E8F0A3E9F0741322121EBF22F08510820A
:101EC300851183E022121EBF121ECF22F8A3E0F574
:101ED300838882E022851082851183E02401F0A3A8
:101EE300E03400F022E8F0A3E9121EBF2401F81247
:101EF3001E51E8F0A3E92274F7120CA4E9FEEAF8F4
:101F0300EBF9E8FAE9FB740B2EC0E08A828B83D0ED
:101F1300E0F0900207E0F8A3E0F5838882A3A3A38F
:101F2300A3A3E0600678617988800478417988E822
:101F3300C0E08A828B83A3D0E0F0E4C9F8E8C0E074
:101F43008A828B83A3A3D0E0F0900200E0C0E08AF2
:101F5300828B83A3A3A3D0E0F0900207E0F8A3E071
:101F6300F5838882A3A3E0F8A3E0F98A828B83A395
:101F7300A3A3A3E8F0A3E9F08A828B83A3A3A3A37B
:101F8300A3A3ECF0A3EDF0900207E0F8A3E0F58340
:101F93008882E0F8A3E0F98A828B83A3A3A3A3A397
:101FA300A3A3A3E8F0A3E9F0790A7F01020D10745B
:101FB300F2120CA4ECFEEDFF8908A908EAFCEBFD84
:101FC3007A097B02120196E9FB7A0080348A0A754A
:101FD3000B00EE250AF582EF350BF583E0C0E08BAD
:101FE3000A750B008A0C750D00E50A250CF8E50B44
:101FF300350DF9740928F582740239F583D0E0F0C0
:102003000AEAC3950840C6EB2508F97F06020D10BE
:1020130074F7120CA47E7C7F021202501201FC7929
:1020230001EEFAEFFB1202388E828F83E0C2E7F0F3
:102033008E828F83E0640570528E828F83E0F97AFB
:102043007D7B021202388E828F83A3E0A2E55004C7
:10205300D2F08002C2F0A2F0E43390031CF0788047
:10206300790288828983A3E0A2E740030221358EA7
:10207300828F83A3A3A3E0F8900200E068600302C9
:1020830021359002017401F00221358E828F83E0A5
:1020930024F5900319F08E828F83E0F97A7D7B0219
:1020A3001202388E828F83A3E0A2E55004D2F0801F
:1020B30002C2F0A2F0E43390031CF08E828F83A35C
:1020C300A3A3A3A3A3A3A3E0F8A3E0F9900315E8B4
:1020D300F0A3E9F090031A7486F0A37402F090035E
:1020E30019E0F83395E0F990031AE028F8A3E039F2
:1020F300F988828983E090031DF088828983A3E0B5
:10210300A2E75022900314E0F88E828F83A3A3A347
:10211300E06860128E828F83A3E054DF644170060F
:1021230090031E7401F08E828F83A3A3A3E0900318
:1021330014F01202021202567F01020D1074F712FC
:102143000CA4EAFEEBFF12021AE9640170047901A0
:102153008079120202900207EEF0A3EFF090031AC7
:102163007400F0A37400F09002027401F07C007D0F
:10217300007E007F00900203ECF0A3EDF0A3EEF0ED
:10218300A3EFF0900207E0F8A3E0F5838882A3A30E
:10219300A3A3E0F9120220900207E0F8A3E0F5837D
:1021A3008882E0FAA3E0FB120226900207E0F8A37C
:1021B300E0F5838882A3A3E0FAA3E0FB12022C7A62
:1021C300A27B0112025C1201FC79007F01020D1057
:1021D30074F4120CA4EAFEEBFF8C0A8D0B890890B1
:1021E3000202E07003120244E508C39467500585B8
:1021F30008098003750967850908120262120250F3
:10220300A908AC0AAD0BEEFAEFFB12019CE9F97ACF
:10221300097B0212023212025612023EE960027E6A
:1022230001900207E0F8A3E0F5838882A3A3A3A3A8
:10223300A3E0601C9002017400F07A4A7B02120250
:102243000E900201E06004740080027401FE8002BB
:102253007E00900202E0700312024AEE70079002C1
:1022630000E02401F0EEF97F04020D10C082C08368
:102273009002027400F012024AD083D0820200EF6F
:10228300780A7900E8FAE9FBEA24FFF8EB34FFF96E
:10229300EA4B70F00200EF74F7120CA4EAFEEBFFB6
:1022A300EEF8EFF9E824FFFEE934FFFFE849601197
:1022B300750800E508C3946450E61201C60508805A
:1022C300F27F01020D1074F7120CA47E00801690A9
:1022D300030BE0C33390030BF09002FDE0F890038F
:1022E3000BE048F00EEEC3940850539002FC7402C6
:1022F300F0A293400F9002FCE0F87401289002FCD6
:10230300F0E870ED1201C61201C61201C69002FD7B
:102313007400F0A29350069002FD7401F09002FC49
:102323007402F0A293500F9002FCE0F8740128901D
:1023330002FCF0E870ED9002FCE0640170917F0113
:10234300020D10C082C083C2937A137B001201CCAA
:10235300D29353FEF71201C61201C61201C612012F
:10236300C6A293500302245A9002FC7402F0A29373
:10237300400F9002FCE0F87401289002FCF0E87032
:10238300ED9002FC7402F0A293500F9002FCE0F86F
:102393007401289002FCF0E870ED1201D290030B57
:1023A300E0900308F01201D290030BE0900309F0D0
:1023B3001201D290030BE0900306F01201D29003B6
:1023C3000BE0900307F01201D290030BE090030A95
:1023D300F0D293900309E0FA900308E0F990030721
:1023E300E0F8900306E028292A9002FDF09002FD10
:1023F300E0F890030AE0687028900308E090030374
:10240300F0900309E0900304F0900306E0900301C9
:10241300F0900307E0900302F090030AE0900305B5
:10242300F075F00A900301E084900300F09003013B
:10243300E075F00A84E5F0900324F075F00A900348
:1024430003E0849002FEF0900303E075F00A84E554
:10245300F09002FFF080189003007400F0900324C2
:102463007400F09002FE7400F09002FF7400F043D9
:10247300FE08D083D0820200EF7C007D0080130829
:10248300E8700109C3E89417E9940240F20CEC7078
:10249300010DC3EC9AED9B50067800790080E502AC
:1024A30000EFC286D2870200EFD286C2870200EF16
:1024B300C286C2870200EF43FDF00200EFC082C074
:1024C300837A017B0012027490034EE0FAA3E0FBCF
:1024D30012026E1202807AD07B0712026E7A017B9F
:1024E3000012027A900350E0FAA3E0FB12026E128C
:1024F30002807AB87B0B12026ED083D0820200EF87
:1025030074F6120CA474EF120C34900325740312A6
:102513000C9A740E120B797A337B031202B01201F8
:10252300B4801C7A017B001201F07A647B001202F2
:10253300147A017B001201EA7A547B0B12021475A0
:1025430008047509007808120E0D7C007D007402E2
:10255300120C921202A47402120C4A1201D89003B4
:1025630000E02430C0E0851082851183D0E0F09034
:102573000324E02430C0E07401120C80D0E0F07436
:1025830002120C807431F0AA10AB111202B07A4B14
:102593007B031202B0790EAC10AD117A207B2512A9
:1025A30001AEE970030225267A017B001201F07A5D
:1025B300E87B031202147A017B001201EA7AE87BBA
:1025C300031202140225421202867AD07B071202FA
:1025D3006E1202081201E41201F612028C7A887B51
:1025E3001312026E12021AE9640170031201DE90E3
:1025F30003107407F0A37420F09003127419F09081
:1026030003137401F090030E7430F0A37425F07A71
:102613000E7B031201A8E9640170031201DE1202AA
:10262300920200EFC082C083906189E04460F09021
:1026330061FA7409F09061B27415F09061AE7400A0
:10264300F01202681202567900D083D0820200EFA2
:10265300C082C08375F005E9A424D490618FF0D0C3
:1026630083D0820200EFC082C083EA906174F0E4F9
:10267300CBFAEA906175F0D083D0820200EFC0827A
:10268300C083EA906172F0E4CBFAEA906173F0D010
:1026930083D0820200EF74F6120CA475E1EE7591FB
:1026A300FD780080138808750900EA2508F582EB98
:1026B3003509F583E0F5D908E8C39940E87F0202BC
:1026C3000D10C082C0838015E5D9C0E08A828B8358
:1026D300D0E0F08A828B83A3AA82AB8319E970E8E6
:1026E300D083D0820200EF75E1E9E591A2E150FACF
:1026F3007591FD79000200EF75E1EC75E1E30200ED
:10270300EF75E1EF75E1EC0200EFC082C0839061E9
:10271300A3E0C2E6F0539AFED083D0820200EFC05A
:1027230082C0839061A3E0D2E6F0439A01D083D0C4
:10273300820200EFC082C083A2AFE433F8C2AF903D
:10274300030CEAF0A3EBF0E8F9E8A2E092AFD08340
:10275300D0820200EFC082C083906193E054227064
:10276300F8D083D0820200EF0200EFC082C08379E9
:10277300001201C0E9601079011201BA7900120157
:10278300C0E960031201DE79001201BAD083D0825E
:102793000200EFEBC313FBEA13FAEAF8EBF9E824C0
:1027A300FFFAE934FFFBE849601300000000000072
:1027B300000000000000000000000080DD0200EFC8
:1027C30074F7120CA4EAFEEBFFEEF8EFF9E824FF2E
:1027D300FEE934FFFFE84960097AE87B0312020E41
:1027E30080E77F01020D10E5C65480F853BEFBE578
:1027F3009DA2E550FAE59DA2E240F40074016970E0
:1028030007744948F5C68005E9700288C6E5C6F82D
:10281300E59EFAE86A70F943BE040200EFE9F8E5C1
:102823009EA2E640047901801CE8700553C67F80B0
:1028330008740168700343C680E5C6F9E59EFAE9AA
:102843006A70F979000200EF53F3CF43FD30C2847D
:10285300C2850200EF74016A700374006B7002C2D8
:102863008474026A700374006B7002C2850200EF05
:1028730074016A700374006B7002D28474026A700C
:102883000374006B7002D2850200EF75F10043F30D
:102893000C53FF3F43868043864075C50943C23BC3
:1028A300C2E90200EF74F6120CA4E9FA7B00120EDF
:1028B3004D7F02020D1074F6120CA474FE120C3438
:1028C300740C120C8A851082851183E8F0A3E9F059
:1028D300A810A911880889097808120E0DE4F508D3
:1028E300F5097808120E0D7CAA7D0212029E74046B
:1028F300120C4A7402120C4A80B7C082C08385103E
:1029030082851183E0F8A3E0F9E84960128A828B9B
:1029130083ECF0A3E824FF18E934FFF94870F2D000
:1029230083D0820200EFD2AF0200EFC2AF0200EF0A
:0229330080FE24
:04000005000000D720
:00000001FF
